:020000040800F2
:1000000080040020450100084D0100084F01000850
:1000100051010008530100085501000800000000CC
:100020000000000000000000000000005701000870
:1000300059010008000000005B0100085D01000894
:100040005F0100085F0100085F0100085F01000810
:100050005F0100085F0100085F0100085F01000800
:100060005F0100085F0100085F0100085F010008F0
:100070005F0100085F0100085F0100085F010008E0
:100080008D0100085F0100085F0100085F010008A2
:100090005F0100085F0100085F0100085F010008C0
:1000A0005F0100085F0100085F0100085F010008B0
:1000B0005F0100085F0100085F0100085F010008A0
:1000C0005F0100085F0100085F0100085F01000890
:1000D0005F0100085F0100085F0100085F01000880
:1000E0005F0100085F0100085F0100085F01000870
:1000F0005F0100085F0100085F0100085F01000860
:100100005F0100085F0100085F0100085F0100084F
:100110005F0100085F0100085F0100085F0100083F
:100120005F0100085F0100085F0100085F0100082F
:10013000DFF80CD000F018F800480047B30B0008B7
:10014000800400200648804706480047FEE7FEE797
:10015000FEE7FEE7FEE7FEE7FEE7FEE7FEE7FEE777
:100160005508000831010008064C074D06E0E0681C
:1001700040F0010394E8070098471034AC42F6D3EE
:10018000FFF7DAFFC00B0008E00B000810B54FF4D2
:10019000001000F0D9F8012806D1400500F006F85B
:1001A0004FF4001000F010F810BD000000F0805176
:1001B00011B10349086001E002494860704700003E
:1001C000040402400000024000F0805111B10349D4
:1001D000086001E0024948607047000004040240E2
:1001E0000000024021B1026842F00102026004E016
:1001F00002684FF6FE731A400260704701684FF6BE
:10020000FE72114001600021016041608160C160A7
:100210004B49884208D14A490839496841F00F01E1
:10022000474A083A51608AE045491431884208D16A
:1002300043490839496841F0F001414A083A5160A0
:100240007DE03F492831884208D13D490839496855
:1002500041F470613A4A083A516070E038493C31E3
:10026000884208D136490839496841F47041344A16
:10027000083A516063E032495031884208D1304930
:100280000839496841F470212D4A083A516056E016
:100290002B496431884208D129490839496841F419
:1002A0007001274A083A516049E02549783188426F
:1002B00008D123490839496841F07061204A083A59
:1002C00051603CE01F49884206D1011F096841F096
:1002D0000F01021F116032E01A491431884208D11F
:1002E0001849091F096841F0F001164A121F1160F0
:1002F00025E014492831884208D11249091F0968AC
:1003000041F470610F4A121F116018E00D493C3131
:10031000884208D10B49091F096841F47041094A14
:10032000121F11600BE007495031884207D105497F
:10033000091F096841F47021024A121F11607047B9
:10034000080002400804024001460020002201F09B
:10035000805313B1054B1A6801E0054B1A6802EA95
:1003600001030BB1012000E00020704700040240AF
:10037000000002401AB103680B43036002E0036807
:100380008B430360704710B50022026847F6F07394
:100390009A430C6A8B6823430C6923434C692343BB
:1003A0008C692343CC6923434C6A23438C6A2343DF
:1003B0001A430260CB6843600B6883604B68C3607C
:1003C00010BD2DE9F0410246002500260020002343
:1003D0000024002791F803C00CF00F0591F803C02A
:1003E0000CF0100CBCF1000F03D091F802C04CEAE5
:1003F000050591F800C0BCF1000F31D01468002051
:100400002BE04FF0010C0CFA00F3B1F800C00CEA3D
:1004100003069E4220D183004FF00F0C0CFA03F725
:10042000BC4305FA03FC4CEA040491F803C0BCF198
:10043000280F06D14FF0010C0CFA00FCC2F814C0D2
:100440000AE091F803C0BCF1480F05D14FF0010C50
:100450000CFA00FCC2F810C0401C0828D1D314606C
:10046000B1F800C0BCF1FF0F34DD546800202EE06D
:1004700000F1080C4FF0010808FA0CF3B1F800C0C5
:100480000CEA03069E4221D183004FF00F0C0CFAB8
:1004900003F7BC4305FA03FC4CEA040491F803C0DB
:1004A000BCF1280F05D100F1080C08FA0CF8C2F8CD
:1004B000148091F803C0BCF1480F07D100F1080C7B
:1004C0004FF0010808FA0CF8C2F81080401C082808
:1004D000CED35460BDE8F08108B54FF4A06000F0C1
:1004E00081F80B208DF8000000208DF801008DF8B8
:1004F000020001208DF80300684600F03BF8102050
:100500008DF8000001208DF8010000208DF8020018
:1005100001208DF80300684600F02CF81D208DF8AE
:10052000000002208DF8010000208DF8020001205B
:100530008DF80300684600F01DF81E208DF80000BD
:1005400002208DF8010001208DF802008DF80300D3
:10055000684600F00FF837208DF8000003208DF872
:10056000010001208DF802008DF80300684600F0BC
:1005700001F808BD70B5002100230F22C47804B330
:10058000154C246804F4E064C4F5E064210AC1F168
:100590000403CA40447804FA03F1847814402143E8
:1005A00009010E4C0678A155047804F01F050124BA
:1005B000AC4005786D11AD0005F1E025C5F80041AE
:1005C00009E0047804F01F050124AC40044D0678CE
:1005D000761145F8264070BD0CED00E000E400E027
:1005E00080E100E002490143024A116070470000C7
:1005F0000000FA050CED00E029B1064A52690243F9
:10060000044B5A6104E0034A52698243014B5A6128
:10061000704700000010024029B1064AD269024327
:10062000044BDA6104E0034AD2698243014BDA6188
:10063000704700000010024029B1064A12690243C7
:10064000044B1A6104E0034A12698243014B1A61A8
:10065000704700000010024029B1064A9269024327
:10066000044B9A6104E0034A92698243014B9A6108
:10067000704700000010024029B1064AD2680243C8
:10068000044BDA6004E0034AD2688243014BDA602B
:10069000704700000010024030B500210022002405
:1006A00000232D4D6D6805F00C0121B1042905D002
:1006B000082923D105E0294D056022E0274D05607A
:1006C0001FE0254D6D6805F47012234D6D6805F42B
:1006D0008034022505EB92421CB9214D554305603B
:1006E0000BE01D4D6D6805F400351DB11C4D5543E3
:1006F000056002E0194D5543056002E0174D0560A5
:1007000000BF00BF144D6D6805F0F0010909154DDB
:100710006B5C0568DD4045600F4D6D6805F4E06178
:10072000090A104D6B5C4568DD4085600A4D6D68B7
:1007300005F46051C90A0B4D6B5C4568DD40C5602E
:10074000054D6D6805F44041890B074D6B5CC5682C
:10075000B5FBF3F5056130BD0010024000127A00D0
:1007600000093D00050000201500002010B500F034
:1007700001F810BD0CB500200190009033480068CE
:1007800040F480303149086000BF3048006800F410
:10079000003000900198401C0190009818B9019811
:1007A000B0F5A06FF1D12948006800F4003010B115
:1007B0000120009001E0002000900098012843D122
:1007C0002348006840F0100021490860084600688E
:1007D00020F0030008600846006840F0020008604E
:1007E0001A48406819494860084640684860084609
:1007F000406840F4806048600846406820F47C10FF
:1008000048600846406840F4E810486008460068C0
:1008100040F08070086000BF0C48006800F0007075
:100820000028F9D00948406820F0030007494860D3
:100830000846406840F00200486000BF0348406836
:1008400000F00C000828F9D10CBD00000010024097
:100850000020024010B51348006840F00100114923
:10086000086008464068104908400E49486008463C
:1008700000680E4908400B4908600846006820F4EB
:10088000802008600846406820F4FE0048604FF46D
:100890001F008860FFF76AFF4FF00060044908609E
:1008A00010BD0000001002400000FFF8FFFFF6FE40
:1008B00008ED00E000B591B001210420FFF7CCFE67
:1008C00001214804FFF7A8FE01210846FFF794FE26
:1008D0000420ADF8400003208DF8420018208DF868
:1008E000430010A93E48FFF76CFD0820ADF840001A
:1008F00003208DF8420004208DF8430010A93848E9
:10090000FFF75FFD3748FFF779FC052004901020C2
:10091000039000200590802006900020079008900A
:1009200009900A900B90304801903048029001A93C
:100930002C48FFF728FD00212A48FFF753FC2A48DE
:1009400001902B4802900020039062200490002028
:1009500005908020069000200790089020200990A4
:100960004FF440500A9000200B9001A91D48143804
:10097000FFF709FD01211B481438FFF733FC012262
:10098000022118481438FFF7F5FC1748001F00F043
:1009900047F84FF4E1300C900020ADF83400ADF88A
:1009A0003600ADF83800ADF83C000C20ADF83A0048
:1009B0000CA90D48001F00F081F8012280210A488F
:1009C000001F00F023F8012240210748001F00F01B
:1009D0001DF801210448001F00F00CF811B000BD03
:1009E0000008014080000240044400400000002054
:1009F0001C00002021B1828942F40052828104E06F
:100A000082894DF6FF731A40828170471AB1838A3A
:100A10000B43838202E0838A8B438382704700000A
:100A200010B504462048844209D101218803FFF70C
:100A300023FE00214FF48040FFF71EFE32E01B48EA
:100A4000844209D101214804FFF7F6FD00214FF44B
:100A50000030FFF7F1FD25E01548844209D101215E
:100A60008804FFF7E9FD00214FF48020FFF7E4FD43
:100A700018E01048844209D10121C804FFF7DCFDC9
:100A800000214FF40020FFF7D7FD0BE00A48844215
:100A900008D101210805FFF7CFFD00214FF4801098
:100AA000FFF7CAFD10BD00000038014000440040BF
:100AB00000480040004C0040005000402DE9F04745
:100AC00086B005460E460024A24600BFA146002778
:100AD000B08900B100BF2F462C8A4CF6FF7004404D
:100AE000F08804432C82AC894EF6F3100440B088A1
:100AF00031890843718908430443AC81AC8A4FF6BD
:100B0000FF400440B0890443AC8201A8FFF7C4FD54
:100B10001F48874202D1DDF810A001E0DDF80CA0EB
:100B2000A88900F4004040B10AEBCA0000EB0A10AB
:100B300031684900B0FBF1F807E00AEBCA0000EBAE
:100B40000A1031688900B0FBF1F86420B8FBF0F0BE
:100B500004012009642101FB1089A88900F40040E8
:100B600040B1322000EBC900B0FBF1F000F007000B
:100B7000044308E0322000EB09106421B0FBF1F0DF
:100B800000F00F0004432C8106B0BDE8F0870000A0
:100B90000038014002E008C8121F08C1002AFAD13B
:100BA00070477047002001E001C1121F002AFBD1ED
:100BB0007047FFF791FCFFF77DFE00BFFEE70000E6
:100BC000E00B0008000000201C000000940B00084F
:100BD000FC0B00081C00002064040000A40B0008AB
:100BE00000000000000000000001020304010203F5
:0C0BF000040607080902040608000000C3
:0400000508000131BD
:00000001FF
